101 091000080 091408!340210151454!094101FRB MINNEAPOLIS MN MSSE BANK                          
5200CREDIT CARD PMT FIRST MSSE BANK     7104000010POSFIRSTCHECK0210070210082841091408730000004
627104000Z163302151          0000003000111122222333444STEPHEN HANTEN        WD0091408730071696
727104000016330215111341803176543212002 12 STREET NW          NEW BRIGHTON   MN091408730071696
6271040000163302151          0000003000112233445536677DAVID HANTEN            0091408730071697
820000000200104000010000000030010000000000007104000010                         091408730000004
9000038000071000006246394237944000027256817000012981902                                       